{"abi":[{"type":"function","name":"balances","inputs":[{"name":"","type":"address","internalType":"address"},{"name":"","type":"address","internalType":"address"}],"outputs":[{"name":"","type":"uint256","internalType":"uint256"}],"stateMutability":"view"},{"type":"function","name":"deposit","inputs":[{"name":"token","type":"address","internalType":"address"},{"name":"amount","type":"uint256","internalType":"uint256"}],"outputs":[],"stateMutability":"nonpayable"},{"type":"function","name":"getBalance","inputs":[{"name":"user","type":"address","internalType":"address"},{"name":"token","type":"address","internalType":"address"}],"outputs":[{"name":"","type":"uint256","internalType":"uint256"}],"stateMutability":"view"},{"type":"function","name":"withdraw","inputs":[{"name":"token","type":"address","internalType":"address"},{"name":"amount","type":"uint256","internalType":"uint256"}],"outputs":[],"stateMutability":"nonpayable"},{"type":"event","name":"Deposited","inputs":[{"name":"user","type":"address","indexed":true,"internalType":"address"},{"name":"token","type":"address","indexed":true,"internalType":"address"},{"name":"amount","type":"uint256","indexed":false,"internalType":"uint256"}],"anonymous":false},{"type":"event","name":"Withdrawn","inputs":[{"name":"user","type":"address","indexed":true,"internalType":"address"},{"name":"token","type":"address","indexed":true,"internalType":"address"},{"name":"amount","type":"uint256","indexed":false,"internalType":"uint256"}],"anonymous":false},{"type":"error","name":"InsufficientBalance","inputs":[]},{"type":"error","name":"InvalidAmount","inputs":[]},{"type":"error","name":"ReentrancyGuardReentrantCall","inputs":[]},{"type":"error","name":"SafeERC20FailedOperation","inputs":[{"name":"token","type":"address","internalType":"address"}]}],"bytecode":{"object":"0x6080604052348015600e575f5ffd5b5060015f81905550610ac4806100235f395ff3fe608060405234801561000f575f5ffd5b506004361061004a575f3560e01c806347e7ef241461004e578063c23f001f1461006a578063d4fac45d1461009a578063f3fef3a3146100ca575b5f5ffd5b61006860048036038101906100639190610894565b6100e6565b005b610084600480360381019061007f91906108d2565b61035b565b604051610091919061091f565b60405180910390f35b6100b460048036038101906100af91906108d2565b61037b565b6040516100c1919061091f565b60405180910390f35b6100e460048036038101906100df9190610894565b6103fd565b005b6100ee61061a565b5f8103610127576040517f2c5211c600000000000000000000000000000000000000000000000000000000815260040160405180910390fd5b5f8273ffffffffffffffffffffffffffffffffffffffff166370a08231306040518263ffffffff1660e01b81526004016101619190610947565b602060405180830381865afa15801561017c573d5f5f3e3d5ffd5b505050506040513d601f19601f820116820180604052508101906101a09190610974565b90506101cf3330848673ffffffffffffffffffffffffffffffffffffffff1661065e909392919063ffffffff16565b5f8373ffffffffffffffffffffffffffffffffffffffff166370a08231306040518263ffffffff1660e01b81526004016102099190610947565b602060405180830381865afa158015610224573d5f5f3e3d5ffd5b505050506040513d601f19601f820116820180604052508101906102489190610974565b90505f828261025791906109cc565b90508060015f3373ffffffffffffffffffffffffffffffffffffffff1673ffffffffffffffffffffffffffffffffffffffff1681526020019081526020015f205f8773ffffffffffffffffffffffffffffffffffffffff1673ffffffffffffffffffffffffffffffffffffffff1681526020019081526020015f205f8282546102e091906109ff565b925050819055508473ffffffffffffffffffffffffffffffffffffffff163373ffffffffffffffffffffffffffffffffffffffff167f8752a472e571a816aea92eec8dae9baf628e840f4929fbcc2d155e6233ff68a783604051610344919061091f565b60405180910390a35050506103576106e0565b5050565b6001602052815f5260405f20602052805f5260405f205f91509150505481565b5f60015f8473ffffffffffffffffffffffffffffffffffffffff1673ffffffffffffffffffffffffffffffffffffffff1681526020019081526020015f205f8373ffffffffffffffffffffffffffffffffffffffff1673ffffffffffffffffffffffffffffffffffffffff1681526020019081526020015f2054905092915050565b61040561061a565b5f810361043e576040517f2c5211c600000000000000000000000000000000000000000000000000000000815260040160405180910390fd5b8060015f3373ffffffffffffffffffffffffffffffffffffffff1673ffffffffffffffffffffffffffffffffffffffff1681526020019081526020015f205f8473ffffffffffffffffffffffffffffffffffffffff1673ffffffffffffffffffffffffffffffffffffffff1681526020019081526020015f205410156104f0576040517ff4d678b800000000000000000000000000000000000000000000000000000000815260040160405180910390fd5b8060015f3373ffffffffffffffffffffffffffffffffffffffff1673ffffffffffffffffffffffffffffffffffffffff1681526020019081526020015f205f8473ffffffffffffffffffffffffffffffffffffffff1673ffffffffffffffffffffffffffffffffffffffff1681526020019081526020015f205f82825461057791906109cc565b925050819055506105a933828473ffffffffffffffffffffffffffffffffffffffff166106e99092919063ffffffff16565b8173ffffffffffffffffffffffffffffffffffffffff163373ffffffffffffffffffffffffffffffffffffffff167fd1c19fbcd4551a5edfb66d43d2e337c04837afda3482b42bdf569a8fccdae5fb83604051610606919061091f565b60405180910390a36106166106e0565b5050565b60025f5403610655576040517f3ee5aeb500000000000000000000000000000000000000000000000000000000815260040160405180910390fd5b60025f81905550565b6106da848573ffffffffffffffffffffffffffffffffffffffff166323b872dd86868660405160240161069393929190610a32565b604051602081830303815290604052915060e01b6020820180517bffffffffffffffffffffffffffffffffffffffffffffffffffffffff8381831617835250505050610768565b50505050565b60015f81905550565b610763838473ffffffffffffffffffffffffffffffffffffffff1663a9059cbb858560405160240161071c929190610a67565b604051602081830303815290604052915060e01b6020820180517bffffffffffffffffffffffffffffffffffffffffffffffffffffffff8381831617835250505050610768565b505050565b5f5f60205f8451602086015f885af180610787576040513d5f823e3d81fd5b3d92505f519150505f82146107a05760018114156107bb565b5f8473ffffffffffffffffffffffffffffffffffffffff163b145b156107fd57836040517f5274afe70000000000000000000000000000000000000000000000000000000081526004016107f49190610947565b60405180910390fd5b50505050565b5f5ffd5b5f73ffffffffffffffffffffffffffffffffffffffff82169050919050565b5f61083082610807565b9050919050565b61084081610826565b811461084a575f5ffd5b50565b5f8135905061085b81610837565b92915050565b5f819050919050565b61087381610861565b811461087d575f5ffd5b50565b5f8135905061088e8161086a565b92915050565b5f5f604083850312156108aa576108a9610803565b5b5f6108b78582860161084d565b92505060206108c885828601610880565b9150509250929050565b5f5f604083850312156108e8576108e7610803565b5b5f6108f58582860161084d565b92505060206109068582860161084d565b9150509250929050565b61091981610861565b82525050565b5f6020820190506109325f830184610910565b92915050565b61094181610826565b82525050565b5f60208201905061095a5f830184610938565b92915050565b5f8151905061096e8161086a565b92915050565b5f6020828403121561098957610988610803565b5b5f61099684828501610960565b91505092915050565b7f4e487b71000000000000000000000000000000000000000000000000000000005f52601160045260245ffd5b5f6109d682610861565b91506109e183610861565b92508282039050818111156109f9576109f861099f565b5b92915050565b5f610a0982610861565b9150610a1483610861565b9250828201905080821115610a2c57610a2b61099f565b5b92915050565b5f606082019050610a455f830186610938565b610a526020830185610938565b610a5f6040830184610910565b949350505050565b5f604082019050610a7a5f830185610938565b610a876020830184610910565b939250505056fea26469706673582212207e3aacb9d43944305628bb6e761a5c3d4448dffeb4d67efda3874e5644ceae6464736f6c634300081c0033","linkReferences":{}},"methodIdentifiers":{"balances(address,address)":"c23f001f","deposit(address,uint256)":"47e7ef24","getBalance(address,address)":"d4fac45d","withdraw(address,uint256)":"f3fef3a3"},"id":31}